{
  "_format": "hh-sol-artifact-1",
  "contractName": "MyNFT",
  "sourceName": "contracts/NFT.sol",
  "abi": [
    {
      "inputs": [],
      "stateMutability": "nonpayable",
      "type": "constructor"
    },
    {
      "anonymous": false,
      "inputs": [
        {
          "indexed": true,
          "internalType": "address",
          "name": "owner",
          "type": "address"
        },
        {
          "indexed": true,
          "internalType": "address",
          "name": "approved",
          "type": "address"
        },
        {
          "indexed": true,
          "internalType": "uint256",
          "name": "tokenId",
          "type": "uint256"
        }
      ],
      "name": "Approval",
      "type": "event"
    },
    {
      "anonymous": false,
      "inputs": [
        {
          "indexed": true,
          "internalType": "address",
          "name": "owner",
          "type": "address"
        },
        {
          "indexed": true,
          "internalType": "address",
          "name": "operator",
          "type": "address"
        },
        {
          "indexed": false,
          "internalType": "bool",
          "name": "approved",
          "type": "bool"
        }
      ],
      "name": "ApprovalForAll",
      "type": "event"
    },
    {
      "anonymous": false,
      "inputs": [
        {
          "indexed": true,
          "internalType": "address",
          "name": "previousOwner",
          "type": "address"
        },
        {
          "indexed": true,
          "internalType": "address",
          "name": "newOwner",
          "type": "address"
        }
      ],
      "name": "OwnershipTransferred",
      "type": "event"
    },
    {
      "anonymous": false,
      "inputs": [
        {
          "indexed": true,
          "internalType": "address",
          "name": "from",
          "type": "address"
        },
        {
          "indexed": true,
          "internalType": "address",
          "name": "to",
          "type": "address"
        },
        {
          "indexed": true,
          "internalType": "uint256",
          "name": "tokenId",
          "type": "uint256"
        }
      ],
      "name": "Transfer",
      "type": "event"
    },
    {
      "inputs": [
        {
          "internalType": "address",
          "name": "to",
          "type": "address"
        },
        {
          "internalType": "uint256",
          "name": "tokenId",
          "type": "uint256"
        }
      ],
      "name": "approve",
      "outputs": [],
      "stateMutability": "nonpayable",
      "type": "function"
    },
    {
      "inputs": [
        {
          "internalType": "address",
          "name": "owner",
          "type": "address"
        }
      ],
      "name": "balanceOf",
      "outputs": [
        {
          "internalType": "uint256",
          "name": "",
          "type": "uint256"
        }
      ],
      "stateMutability": "view",
      "type": "function"
    },
    {
      "inputs": [
        {
          "internalType": "uint256",
          "name": "tokenId",
          "type": "uint256"
        }
      ],
      "name": "getApproved",
      "outputs": [
        {
          "internalType": "address",
          "name": "",
          "type": "address"
        }
      ],
      "stateMutability": "view",
      "type": "function"
    },
    {
      "inputs": [
        {
          "internalType": "string",
          "name": "",
          "type": "string"
        }
      ],
      "name": "imgHash",
      "outputs": [
        {
          "internalType": "bool",
          "name": "",
          "type": "bool"
        }
      ],
      "stateMutability": "view",
      "type": "function"
    },
    {
      "inputs": [
        {
          "internalType": "address",
          "name": "owner",
          "type": "address"
        },
        {
          "internalType": "address",
          "name": "operator",
          "type": "address"
        }
      ],
      "name": "isApprovedForAll",
      "outputs": [
        {
          "internalType": "bool",
          "name": "",
          "type": "bool"
        }
      ],
      "stateMutability": "view",
      "type": "function"
    },
    {
      "inputs": [
        {
          "internalType": "address",
          "name": "user",
          "type": "address"
        },
        {
          "internalType": "string",
          "name": "tokenURI",
          "type": "string"
        },
        {
          "internalType": "string",
          "name": "img",
          "type": "string"
        }
      ],
      "name": "mintNFT",
      "outputs": [
        {
          "internalType": "bool",
          "name": "",
          "type": "bool"
        }
      ],
      "stateMutability": "nonpayable",
      "type": "function"
    },
    {
      "inputs": [],
      "name": "name",
      "outputs": [
        {
          "internalType": "string",
          "name": "",
          "type": "string"
        }
      ],
      "stateMutability": "view",
      "type": "function"
    },
    {
      "inputs": [],
      "name": "owner",
      "outputs": [
        {
          "internalType": "address",
          "name": "",
          "type": "address"
        }
      ],
      "stateMutability": "view",
      "type": "function"
    },
    {
      "inputs": [
        {
          "internalType": "uint256",
          "name": "tokenId",
          "type": "uint256"
        }
      ],
      "name": "ownerOf",
      "outputs": [
        {
          "internalType": "address",
          "name": "",
          "type": "address"
        }
      ],
      "stateMutability": "view",
      "type": "function"
    },
    {
      "inputs": [],
      "name": "renounceOwnership",
      "outputs": [],
      "stateMutability": "nonpayable",
      "type": "function"
    },
    {
      "inputs": [
        {
          "internalType": "address",
          "name": "from",
          "type": "address"
        },
        {
          "internalType": "address",
          "name": "to",
          "type": "address"
        },
        {
          "internalType": "uint256",
          "name": "tokenId",
          "type": "uint256"
        }
      ],
      "name": "safeTransferFrom",
      "outputs": [],
      "stateMutability": "nonpayable",
      "type": "function"
    },
    {
      "inputs": [
        {
          "internalType": "address",
          "name": "from",
          "type": "address"
        },
        {
          "internalType": "address",
          "name": "to",
          "type": "address"
        },
        {
          "internalType": "uint256",
          "name": "tokenId",
          "type": "uint256"
        },
        {
          "internalType": "bytes",
          "name": "data",
          "type": "bytes"
        }
      ],
      "name": "safeTransferFrom",
      "outputs": [],
      "stateMutability": "nonpayable",
      "type": "function"
    },
    {
      "inputs": [
        {
          "internalType": "address",
          "name": "operator",
          "type": "address"
        },
        {
          "internalType": "bool",
          "name": "approved",
          "type": "bool"
        }
      ],
      "name": "setApprovalForAll",
      "outputs": [],
      "stateMutability": "nonpayable",
      "type": "function"
    },
    {
      "inputs": [
        {
          "internalType": "bytes4",
          "name": "interfaceId",
          "type": "bytes4"
        }
      ],
      "name": "supportsInterface",
      "outputs": [
        {
          "internalType": "bool",
          "name": "",
          "type": "bool"
        }
      ],
      "stateMutability": "view",
      "type": "function"
    },
    {
      "inputs": [],
      "name": "symbol",
      "outputs": [
        {
          "internalType": "string",
          "name": "",
          "type": "string"
        }
      ],
      "stateMutability": "view",
      "type": "function"
    },
    {
      "inputs": [
        {
          "internalType": "uint256",
          "name": "tokenId",
          "type": "uint256"
        }
      ],
      "name": "tokenURI",
      "outputs": [
        {
          "internalType": "string",
          "name": "",
          "type": "string"
        }
      ],
      "stateMutability": "view",
      "type": "function"
    },
    {
      "inputs": [
        {
          "internalType": "address",
          "name": "from",
          "type": "address"
        },
        {
          "internalType": "address",
          "name": "to",
          "type": "address"
        },
        {
          "internalType": "uint256",
          "name": "tokenId",
          "type": "uint256"
        }
      ],
      "name": "transferFrom",
      "outputs": [],
      "stateMutability": "nonpayable",
      "type": "function"
    },
    {
      "inputs": [
        {
          "internalType": "address",
          "name": "newOwner",
          "type": "address"
        }
      ],
      "name": "transferOwnership",
      "outputs": [],
      "stateMutability": "nonpayable",
      "type": "function"
    }
  ],
  "bytecode": "0x60806040523480156200001157600080fd5b5060405180604001604052806005815260200164135e53919560da1b815250604051806040016040528060048152602001631353919560e21b81525081600090816200005e919062000190565b5060016200006d828262000190565b5050506200008a620000846200009560201b60201c565b62000099565b60016008556200025c565b3390565b600780546001600160a01b038381166001600160a01b0319831681179093556040519116919082907f8be0079c531659141344cd1fd0a4f28419497f9722a3daafe3b4186f6b6457e090600090a35050565b634e487b7160e01b600052604160045260246000fd5b600181811c908216806200011657607f821691505b6020821081036200013757634e487b7160e01b600052602260045260246000fd5b50919050565b601f8211156200018b57600081815260208120601f850160051c81016020861015620001665750805b601f850160051c820191505b81811015620001875782815560010162000172565b5050505b505050565b81516001600160401b03811115620001ac57620001ac620000eb565b620001c481620001bd845462000101565b846200013d565b602080601f831160018114620001fc5760008415620001e35750858301515b600019600386901b1c1916600185901b17855562000187565b600085815260208120601f198616915b828110156200022d578886015182559484019460019091019084016200020c565b50858210156200024c5787850151600019600388901b60f8161c191681555b5050505050600190811b01905550565b61190a806200026c6000396000f3fe608060405234801561001057600080fd5b50600436106101165760003560e01c8063715018a6116100a2578063a3ee38ae11610071578063a3ee38ae14610254578063b88d4fde14610267578063c87b56dd1461027a578063e985e9c51461028d578063f2fde38b146102c957600080fd5b8063715018a6146102205780638da5cb5b1461022857806395d89b4114610239578063a22cb4651461024157600080fd5b806323b872dd116100e957806323b872dd1461019857806342842e0e146101ab5780635162847a146101be5780636352211e146101ec57806370a08231146101ff57600080fd5b806301ffc9a71461011b57806306fdde0314610143578063081812fc14610158578063095ea7b314610183575b600080fd5b61012e61012936600461128d565b6102dc565b60405190151581526020015b60405180910390f35b61014b61032e565b60405161013a91906112fa565b61016b61016636600461130d565b6103c0565b6040516001600160a01b03909116815260200161013a565b610196610191366004611342565b6103e7565b005b6101966101a636600461136c565b610501565b6101966101b936600461136c565b610532565b61012e6101cc366004611454565b8051602081830181018051600a8252928201919093012091525460ff1681565b61016b6101fa36600461130d565b61054d565b61021261020d366004611489565b6105ad565b60405190815260200161013a565b610196610633565b6007546001600160a01b031661016b565b61014b610647565b61019661024f3660046114a4565b610656565b61012e6102623660046114e0565b610665565b610196610275366004611554565b61075c565b61014b61028836600461130d565b610794565b61012e61029b3660046115d0565b6001600160a01b03918216600090815260056020908152604080832093909416825291909152205460ff1690565b6101966102d7366004611489565b6108a4565b60006001600160e01b031982166380ac58cd60e01b148061030d57506001600160e01b03198216635b5e139f60e01b145b8061032857506301ffc9a760e01b6001600160e01b03198316145b92915050565b60606000805461033d90611603565b80601f016020809104026020016040519081016040528092919081815260200182805461036990611603565b80156103b65780601f1061038b576101008083540402835291602001916103b6565b820191906000526020600020905b81548152906001019060200180831161039957829003601f168201915b5050505050905090565b60006103cb8261091d565b506000908152600460205260409020546001600160a01b031690565b60006103f28261054d565b9050806001600160a01b0316836001600160a01b0316036104645760405162461bcd60e51b815260206004820152602160248201527f4552433732313a20617070726f76616c20746f2063757272656e74206f776e656044820152603960f91b60648201526084015b60405180910390fd5b336001600160a01b03821614806104805750610480813361029b565b6104f25760405162461bcd60e51b815260206004820152603d60248201527f4552433732313a20617070726f76652063616c6c6572206973206e6f7420746f60448201527f6b656e206f776e6572206f7220617070726f76656420666f7220616c6c000000606482015260840161045b565b6104fc838361097c565b505050565b61050b33826109ea565b6105275760405162461bcd60e51b815260040161045b9061163d565b6104fc838383610a68565b6104fc8383836040518060200160405280600081525061075c565b6000818152600260205260408120546001600160a01b0316806103285760405162461bcd60e51b8152602060048201526018602482015277115490cdcc8c4e881a5b9d985b1a59081d1bdad95b88125160421b604482015260640161045b565b60006001600160a01b0382166106175760405162461bcd60e51b815260206004820152602960248201527f4552433732313a2061646472657373207a65726f206973206e6f7420612076616044820152683634b21037bbb732b960b91b606482015260840161045b565b506001600160a01b031660009081526003602052604090205490565b61063b610bcc565b6106456000610c26565b565b60606001805461033d90611603565b610661338383610c78565b5050565b6000600a82604051610677919061168a565b9081526040519081900360200190205460ff16156106cf5760405162461bcd60e51b8152602060048201526015602482015274125b59c81a5cc8185b1c9958591e481b5a5b9d1959605a1b604482015260640161045b565b60006106da60095490565b90506106e68582610d46565b6106f08185610ed1565b6106fe600980546001019055565b6001600a84604051610710919061168a565b908152604051908190036020018120805492151560ff1990931692909217909155600a9061073f90859061168a565b9081526040519081900360200190205460ff169150509392505050565b61076633836109ea565b6107825760405162461bcd60e51b815260040161045b9061163d565b61078e84848484610f64565b50505050565b606061079f8261091d565b600082815260066020526040812080546107b890611603565b80601f01602080910402602001604051908101604052809291908181526020018280546107e490611603565b80156108315780601f1061080657610100808354040283529160200191610831565b820191906000526020600020905b81548152906001019060200180831161081457829003601f168201915b50505050509050600061084f60408051602081019091526000815290565b90508051600003610861575092915050565b81511561089357808260405160200161087b9291906116a6565b60405160208183030381529060405292505050919050565b61089c84610f97565b949350505050565b6108ac610bcc565b6001600160a01b0381166109115760405162461bcd60e51b815260206004820152602660248201527f4f776e61626c653a206e6577206f776e657220697320746865207a65726f206160448201526564647265737360d01b606482015260840161045b565b61091a81610c26565b50565b6000818152600260205260409020546001600160a01b031661091a5760405162461bcd60e51b8152602060048201526018602482015277115490cdcc8c4e881a5b9d985b1a59081d1bdad95b88125160421b604482015260640161045b565b600081815260046020526040902080546001600160a01b0319166001600160a01b03841690811790915581906109b18261054d565b6001600160a01b03167f8c5be1e5ebec7d5bd14f71427d1e84f3dd0314c0f7b2291e5b200ac8c7c3b92560405160405180910390a45050565b6000806109f68361054d565b9050806001600160a01b0316846001600160a01b03161480610a3d57506001600160a01b0380821660009081526005602090815260408083209388168352929052205460ff165b8061089c5750836001600160a01b0316610a56846103c0565b6001600160a01b031614949350505050565b826001600160a01b0316610a7b8261054d565b6001600160a01b031614610aa15760405162461bcd60e51b815260040161045b906116d5565b6001600160a01b038216610b035760405162461bcd60e51b8152602060048201526024808201527f4552433732313a207472616e7366657220746f20746865207a65726f206164646044820152637265737360e01b606482015260840161045b565b826001600160a01b0316610b168261054d565b6001600160a01b031614610b3c5760405162461bcd60e51b815260040161045b906116d5565b600081815260046020908152604080832080546001600160a01b03199081169091556001600160a01b0387811680865260038552838620805460001901905590871680865283862080546001019055868652600290945282852080549092168417909155905184937fddf252ad1be2c89b69c2b068fc378daa952ba7f163c4a11628f55a4df523b3ef91a4505050565b6007546001600160a01b031633146106455760405162461bcd60e51b815260206004820181905260248201527f4f776e61626c653a2063616c6c6572206973206e6f7420746865206f776e6572604482015260640161045b565b600780546001600160a01b038381166001600160a01b0319831681179093556040519116919082907f8be0079c531659141344cd1fd0a4f28419497f9722a3daafe3b4186f6b6457e090600090a35050565b816001600160a01b0316836001600160a01b031603610cd95760405162461bcd60e51b815260206004820152601960248201527f4552433732313a20617070726f766520746f2063616c6c657200000000000000604482015260640161045b565b6001600160a01b03838116600081815260056020908152604080832094871680845294825291829020805460ff191686151590811790915591519182527f17307eab39ab6107e8899845ad3d59bd9653f200f220920489ca2b5937696c31910160405180910390a3505050565b6001600160a01b038216610d9c5760405162461bcd60e51b815260206004820181905260248201527f4552433732313a206d696e7420746f20746865207a65726f2061646472657373604482015260640161045b565b6000818152600260205260409020546001600160a01b031615610e015760405162461bcd60e51b815260206004820152601c60248201527f4552433732313a20746f6b656e20616c7265616479206d696e74656400000000604482015260640161045b565b6000818152600260205260409020546001600160a01b031615610e665760405162461bcd60e51b815260206004820152601c60248201527f4552433732313a20746f6b656e20616c7265616479206d696e74656400000000604482015260640161045b565b6001600160a01b038216600081815260036020908152604080832080546001019055848352600290915280822080546001600160a01b0319168417905551839291907fddf252ad1be2c89b69c2b068fc378daa952ba7f163c4a11628f55a4df523b3ef908290a45050565b6000828152600260205260409020546001600160a01b0316610f4c5760405162461bcd60e51b815260206004820152602e60248201527f45524337323155524953746f726167653a2055524920736574206f66206e6f6e60448201526d32bc34b9ba32b73a103a37b5b2b760911b606482015260840161045b565b60008281526006602052604090206104fc8282611768565b610f6f848484610a68565b610f7b8484848461100b565b61078e5760405162461bcd60e51b815260040161045b90611828565b6060610fa28261091d565b6000610fb960408051602081019091526000815290565b90506000815111610fd95760405180602001604052806000815250611004565b80610fe38461110c565b604051602001610ff49291906116a6565b6040516020818303038152906040525b9392505050565b60006001600160a01b0384163b1561110157604051630a85bd0160e11b81526001600160a01b0385169063150b7a029061104f90339089908890889060040161187a565b6020604051808303816000875af192505050801561108a575060408051601f3d908101601f19168201909252611087918101906118b7565b60015b6110e7573d8080156110b8576040519150601f19603f3d011682016040523d82523d6000602084013e6110bd565b606091505b5080516000036110df5760405162461bcd60e51b815260040161045b90611828565b805181602001fd5b6001600160e01b031916630a85bd0160e11b14905061089c565b506001949350505050565b606060006111198361119f565b600101905060008167ffffffffffffffff811115611139576111396113a8565b6040519080825280601f01601f191660200182016040528015611163576020820181803683370190505b5090508181016020015b600019016f181899199a1a9b1b9c1cb0b131b232b360811b600a86061a8153600a850494508461116d57509392505050565b60008072184f03e93ff9f4daa797ed6e38ed64bf6a1f0160401b83106111de5772184f03e93ff9f4daa797ed6e38ed64bf6a1f0160401b830492506040015b6d04ee2d6d415b85acef8100000000831061120a576d04ee2d6d415b85acef8100000000830492506020015b662386f26fc10000831061122857662386f26fc10000830492506010015b6305f5e1008310611240576305f5e100830492506008015b612710831061125457612710830492506004015b60648310611266576064830492506002015b600a83106103285760010192915050565b6001600160e01b03198116811461091a57600080fd5b60006020828403121561129f57600080fd5b813561100481611277565b60005b838110156112c55781810151838201526020016112ad565b50506000910152565b600081518084526112e68160208601602086016112aa565b601f01601f19169290920160200192915050565b60208152600061100460208301846112ce565b60006020828403121561131f57600080fd5b5035919050565b80356001600160a01b038116811461133d57600080fd5b919050565b6000806040838503121561135557600080fd5b61135e83611326565b946020939093013593505050565b60008060006060848603121561138157600080fd5b61138a84611326565b925061139860208501611326565b9150604084013590509250925092565b634e487b7160e01b600052604160045260246000fd5b600067ffffffffffffffff808411156113d9576113d96113a8565b604051601f8501601f19908116603f01168101908282118183101715611401576114016113a8565b8160405280935085815286868601111561141a57600080fd5b858560208301376000602087830101525050509392505050565b600082601f83011261144557600080fd5b611004838335602085016113be565b60006020828403121561146657600080fd5b813567ffffffffffffffff81111561147d57600080fd5b61089c84828501611434565b60006020828403121561149b57600080fd5b61100482611326565b600080604083850312156114b757600080fd5b6114c083611326565b9150602083013580151581146114d557600080fd5b809150509250929050565b6000806000606084860312156114f557600080fd5b6114fe84611326565b9250602084013567ffffffffffffffff8082111561151b57600080fd5b61152787838801611434565b9350604086013591508082111561153d57600080fd5b5061154a86828701611434565b9150509250925092565b6000806000806080858703121561156a57600080fd5b61157385611326565b935061158160208601611326565b925060408501359150606085013567ffffffffffffffff8111156115a457600080fd5b8501601f810187136115b557600080fd5b6115c4878235602084016113be565b91505092959194509250565b600080604083850312156115e357600080fd5b6115ec83611326565b91506115fa60208401611326565b90509250929050565b600181811c9082168061161757607f821691505b60208210810361163757634e487b7160e01b600052602260045260246000fd5b50919050565b6020808252602d908201527f4552433732313a2063616c6c6572206973206e6f7420746f6b656e206f776e6560408201526c1c881bdc88185c1c1c9bdd9959609a1b606082015260800190565b6000825161169c8184602087016112aa565b9190910192915050565b600083516116b88184602088016112aa565b8351908301906116cc8183602088016112aa565b01949350505050565b60208082526025908201527f4552433732313a207472616e736665722066726f6d20696e636f72726563742060408201526437bbb732b960d91b606082015260800190565b601f8211156104fc57600081815260208120601f850160051c810160208610156117415750805b601f850160051c820191505b818110156117605782815560010161174d565b505050505050565b815167ffffffffffffffff811115611782576117826113a8565b611796816117908454611603565b8461171a565b602080601f8311600181146117cb57600084156117b35750858301515b600019600386901b1c1916600185901b178555611760565b600085815260208120601f198616915b828110156117fa578886015182559484019460019091019084016117db565b50858210156118185787850151600019600388901b60f8161c191681555b5050505050600190811b01905550565b60208082526032908201527f4552433732313a207472616e7366657220746f206e6f6e20455243373231526560408201527131b2b4bb32b91034b6b83632b6b2b73a32b960711b606082015260800190565b6001600160a01b03858116825284166020820152604081018390526080606082018190526000906118ad908301846112ce565b9695505050505050565b6000602082840312156118c957600080fd5b81516110048161127756fea2646970667358221220b93c736c4c4873d6482023557a67ed3635fad03f76ea7df6b75d2e2a476223a964736f6c63430008120033",
  "linkReferences": {},
  "deployedLinkReferences": {}
}