{
  "_format": "hh-sol-artifact-1",
  "contractName": "MyNFT",
  "sourceName": "contracts/NFT.sol",
  "abi": [
    {
      "inputs": [
        {
          "internalType": "address payable",
          "name": "owner",
          "type": "address"
        }
      ],
      "stateMutability": "nonpayable",
      "type": "constructor"
    },
    {
      "anonymous": false,
      "inputs": [
        {
          "indexed": true,
          "internalType": "address",
          "name": "owner",
          "type": "address"
        },
        {
          "indexed": true,
          "internalType": "address",
          "name": "approved",
          "type": "address"
        },
        {
          "indexed": true,
          "internalType": "uint256",
          "name": "tokenId",
          "type": "uint256"
        }
      ],
      "name": "Approval",
      "type": "event"
    },
    {
      "anonymous": false,
      "inputs": [
        {
          "indexed": true,
          "internalType": "address",
          "name": "owner",
          "type": "address"
        },
        {
          "indexed": true,
          "internalType": "address",
          "name": "operator",
          "type": "address"
        },
        {
          "indexed": false,
          "internalType": "bool",
          "name": "approved",
          "type": "bool"
        }
      ],
      "name": "ApprovalForAll",
      "type": "event"
    },
    {
      "anonymous": false,
      "inputs": [
        {
          "indexed": true,
          "internalType": "address",
          "name": "previousOwner",
          "type": "address"
        },
        {
          "indexed": true,
          "internalType": "address",
          "name": "newOwner",
          "type": "address"
        }
      ],
      "name": "OwnershipTransferred",
      "type": "event"
    },
    {
      "anonymous": false,
      "inputs": [
        {
          "indexed": true,
          "internalType": "address",
          "name": "from",
          "type": "address"
        },
        {
          "indexed": true,
          "internalType": "address",
          "name": "to",
          "type": "address"
        },
        {
          "indexed": true,
          "internalType": "uint256",
          "name": "tokenId",
          "type": "uint256"
        }
      ],
      "name": "Transfer",
      "type": "event"
    },
    {
      "inputs": [],
      "name": "_owner",
      "outputs": [
        {
          "internalType": "address payable",
          "name": "",
          "type": "address"
        }
      ],
      "stateMutability": "view",
      "type": "function"
    },
    {
      "inputs": [
        {
          "internalType": "address",
          "name": "to",
          "type": "address"
        },
        {
          "internalType": "uint256",
          "name": "tokenId",
          "type": "uint256"
        }
      ],
      "name": "approve",
      "outputs": [],
      "stateMutability": "nonpayable",
      "type": "function"
    },
    {
      "inputs": [
        {
          "internalType": "address",
          "name": "owner",
          "type": "address"
        }
      ],
      "name": "balanceOf",
      "outputs": [
        {
          "internalType": "uint256",
          "name": "",
          "type": "uint256"
        }
      ],
      "stateMutability": "view",
      "type": "function"
    },
    {
      "inputs": [
        {
          "internalType": "uint256",
          "name": "tokenId",
          "type": "uint256"
        }
      ],
      "name": "getApproved",
      "outputs": [
        {
          "internalType": "address",
          "name": "",
          "type": "address"
        }
      ],
      "stateMutability": "view",
      "type": "function"
    },
    {
      "inputs": [
        {
          "internalType": "string",
          "name": "",
          "type": "string"
        }
      ],
      "name": "imgHash",
      "outputs": [
        {
          "internalType": "bool",
          "name": "",
          "type": "bool"
        }
      ],
      "stateMutability": "view",
      "type": "function"
    },
    {
      "inputs": [
        {
          "internalType": "address",
          "name": "owner",
          "type": "address"
        },
        {
          "internalType": "address",
          "name": "operator",
          "type": "address"
        }
      ],
      "name": "isApprovedForAll",
      "outputs": [
        {
          "internalType": "bool",
          "name": "",
          "type": "bool"
        }
      ],
      "stateMutability": "view",
      "type": "function"
    },
    {
      "inputs": [
        {
          "internalType": "address",
          "name": "user",
          "type": "address"
        },
        {
          "internalType": "string",
          "name": "tokenURI",
          "type": "string"
        },
        {
          "internalType": "string",
          "name": "img",
          "type": "string"
        }
      ],
      "name": "mintNFT",
      "outputs": [
        {
          "internalType": "bool",
          "name": "",
          "type": "bool"
        }
      ],
      "stateMutability": "payable",
      "type": "function"
    },
    {
      "inputs": [],
      "name": "name",
      "outputs": [
        {
          "internalType": "string",
          "name": "",
          "type": "string"
        }
      ],
      "stateMutability": "view",
      "type": "function"
    },
    {
      "inputs": [],
      "name": "owner",
      "outputs": [
        {
          "internalType": "address",
          "name": "",
          "type": "address"
        }
      ],
      "stateMutability": "view",
      "type": "function"
    },
    {
      "inputs": [
        {
          "internalType": "uint256",
          "name": "tokenId",
          "type": "uint256"
        }
      ],
      "name": "ownerOf",
      "outputs": [
        {
          "internalType": "address",
          "name": "",
          "type": "address"
        }
      ],
      "stateMutability": "view",
      "type": "function"
    },
    {
      "inputs": [],
      "name": "renounceOwnership",
      "outputs": [],
      "stateMutability": "nonpayable",
      "type": "function"
    },
    {
      "inputs": [
        {
          "internalType": "address",
          "name": "from",
          "type": "address"
        },
        {
          "internalType": "address",
          "name": "to",
          "type": "address"
        },
        {
          "internalType": "uint256",
          "name": "tokenId",
          "type": "uint256"
        }
      ],
      "name": "safeTransferFrom",
      "outputs": [],
      "stateMutability": "nonpayable",
      "type": "function"
    },
    {
      "inputs": [
        {
          "internalType": "address",
          "name": "from",
          "type": "address"
        },
        {
          "internalType": "address",
          "name": "to",
          "type": "address"
        },
        {
          "internalType": "uint256",
          "name": "tokenId",
          "type": "uint256"
        },
        {
          "internalType": "bytes",
          "name": "data",
          "type": "bytes"
        }
      ],
      "name": "safeTransferFrom",
      "outputs": [],
      "stateMutability": "nonpayable",
      "type": "function"
    },
    {
      "inputs": [
        {
          "internalType": "address",
          "name": "operator",
          "type": "address"
        },
        {
          "internalType": "bool",
          "name": "approved",
          "type": "bool"
        }
      ],
      "name": "setApprovalForAll",
      "outputs": [],
      "stateMutability": "nonpayable",
      "type": "function"
    },
    {
      "inputs": [
        {
          "internalType": "bytes4",
          "name": "interfaceId",
          "type": "bytes4"
        }
      ],
      "name": "supportsInterface",
      "outputs": [
        {
          "internalType": "bool",
          "name": "",
          "type": "bool"
        }
      ],
      "stateMutability": "view",
      "type": "function"
    },
    {
      "inputs": [],
      "name": "symbol",
      "outputs": [
        {
          "internalType": "string",
          "name": "",
          "type": "string"
        }
      ],
      "stateMutability": "view",
      "type": "function"
    },
    {
      "inputs": [
        {
          "internalType": "uint256",
          "name": "tokenId",
          "type": "uint256"
        }
      ],
      "name": "tokenURI",
      "outputs": [
        {
          "internalType": "string",
          "name": "",
          "type": "string"
        }
      ],
      "stateMutability": "view",
      "type": "function"
    },
    {
      "inputs": [
        {
          "internalType": "address",
          "name": "from",
          "type": "address"
        },
        {
          "internalType": "address",
          "name": "to",
          "type": "address"
        },
        {
          "internalType": "uint256",
          "name": "tokenId",
          "type": "uint256"
        }
      ],
      "name": "transferFrom",
      "outputs": [],
      "stateMutability": "nonpayable",
      "type": "function"
    },
    {
      "inputs": [
        {
          "internalType": "address",
          "name": "newOwner",
          "type": "address"
        }
      ],
      "name": "transferOwnership",
      "outputs": [],
      "stateMutability": "nonpayable",
      "type": "function"
    }
  ],
  "bytecode": "0x60806040523480156200001157600080fd5b5060405162001ce538038062001ce583398101604081905262000034916200012d565b60405180604001604052806005815260200164135e53919560da1b815250604051806040016040528060048152602001631353919560e21b815250816000908162000080919062000204565b5060016200008f828262000204565b505050620000ac620000a6620000d760201b60201c565b620000db565b6001600855600a80546001600160a01b0319166001600160a01b0392909216919091179055620002d0565b3390565b600780546001600160a01b038381166001600160a01b0319831681179093556040519116919082907f8be0079c531659141344cd1fd0a4f28419497f9722a3daafe3b4186f6b6457e090600090a35050565b6000602082840312156200014057600080fd5b81516001600160a01b03811681146200015857600080fd5b9392505050565b634e487b7160e01b600052604160045260246000fd5b600181811c908216806200018a57607f821691505b602082108103620001ab57634e487b7160e01b600052602260045260246000fd5b50919050565b601f821115620001ff57600081815260208120601f850160051c81016020861015620001da5750805b601f850160051c820191505b81811015620001fb57828155600101620001e6565b5050505b505050565b81516001600160401b038111156200022057620002206200015f565b620002388162000231845462000175565b84620001b1565b602080601f831160018114620002705760008415620002575750858301515b600019600386901b1c1916600185901b178555620001fb565b600085815260208120601f198616915b82811015620002a15788860151825594840194600190910190840162000280565b5085821015620002c05787850151600019600388901b60f8161c191681555b5050505050600190811b01905550565b611a0580620002e06000396000f3fe6080604052600436106101145760003560e01c8063715018a6116100a0578063b2bdfa7b11610064578063b2bdfa7b1461030e578063b88d4fde1461032e578063c87b56dd1461034e578063e985e9c51461036e578063f2fde38b146103b757600080fd5b8063715018a6146102935780638da5cb5b146102a857806395d89b41146102c6578063a22cb465146102db578063a3ee38ae146102fb57600080fd5b806323b872dd116100e757806323b872dd146101ca57806342842e0e146101ea5780635162847a1461020a5780636352211e1461024557806370a082311461026557600080fd5b806301ffc9a71461011957806306fdde031461014e578063081812fc14610170578063095ea7b3146101a8575b600080fd5b34801561012557600080fd5b50610139610134366004611388565b6103d7565b60405190151581526020015b60405180910390f35b34801561015a57600080fd5b50610163610429565b60405161014591906113f5565b34801561017c57600080fd5b5061019061018b366004611408565b6104bb565b6040516001600160a01b039091168152602001610145565b3480156101b457600080fd5b506101c86101c336600461143d565b6104e2565b005b3480156101d657600080fd5b506101c86101e5366004611467565b6105fc565b3480156101f657600080fd5b506101c8610205366004611467565b61062d565b34801561021657600080fd5b5061013961022536600461154f565b8051602081830181018051600b8252928201919093012091525460ff1681565b34801561025157600080fd5b50610190610260366004611408565b610648565b34801561027157600080fd5b50610285610280366004611584565b6106a8565b604051908152602001610145565b34801561029f57600080fd5b506101c861072e565b3480156102b457600080fd5b506007546001600160a01b0316610190565b3480156102d257600080fd5b50610163610742565b3480156102e757600080fd5b506101c86102f636600461159f565b610751565b6101396103093660046115db565b610760565b34801561031a57600080fd5b50600a54610190906001600160a01b031681565b34801561033a57600080fd5b506101c861034936600461164f565b610857565b34801561035a57600080fd5b50610163610369366004611408565b61088f565b34801561037a57600080fd5b506101396103893660046116cb565b6001600160a01b03918216600090815260056020908152604080832093909416825291909152205460ff1690565b3480156103c357600080fd5b506101c86103d2366004611584565b61099f565b60006001600160e01b031982166380ac58cd60e01b148061040857506001600160e01b03198216635b5e139f60e01b145b8061042357506301ffc9a760e01b6001600160e01b03198316145b92915050565b606060008054610438906116fe565b80601f0160208091040260200160405190810160405280929190818152602001828054610464906116fe565b80156104b15780601f10610486576101008083540402835291602001916104b1565b820191906000526020600020905b81548152906001019060200180831161049457829003601f168201915b5050505050905090565b60006104c682610a18565b506000908152600460205260409020546001600160a01b031690565b60006104ed82610648565b9050806001600160a01b0316836001600160a01b03160361055f5760405162461bcd60e51b815260206004820152602160248201527f4552433732313a20617070726f76616c20746f2063757272656e74206f776e656044820152603960f91b60648201526084015b60405180910390fd5b336001600160a01b038216148061057b575061057b8133610389565b6105ed5760405162461bcd60e51b815260206004820152603d60248201527f4552433732313a20617070726f76652063616c6c6572206973206e6f7420746f60448201527f6b656e206f776e6572206f7220617070726f76656420666f7220616c6c0000006064820152608401610556565b6105f78383610a77565b505050565b6106063382610ae5565b6106225760405162461bcd60e51b815260040161055690611738565b6105f7838383610b63565b6105f783838360405180602001604052806000815250610857565b6000818152600260205260408120546001600160a01b0316806104235760405162461bcd60e51b8152602060048201526018602482015277115490cdcc8c4e881a5b9d985b1a59081d1bdad95b88125160421b6044820152606401610556565b60006001600160a01b0382166107125760405162461bcd60e51b815260206004820152602960248201527f4552433732313a2061646472657373207a65726f206973206e6f7420612076616044820152683634b21037bbb732b960b91b6064820152608401610556565b506001600160a01b031660009081526003602052604090205490565b610736610cc7565b6107406000610d21565b565b606060018054610438906116fe565b61075c338383610d73565b5050565b6000600b826040516107729190611785565b9081526040519081900360200190205460ff16156107ca5760405162461bcd60e51b8152602060048201526015602482015274125b59c81a5cc8185b1c9958591e481b5a5b9d1959605a1b6044820152606401610556565b60006107d560095490565b90506107e18582610e41565b6107eb8185610fcc565b6107f9600980546001019055565b6001600b8460405161080b9190611785565b908152604051908190036020018120805492151560ff1990931692909217909155600b9061083a908590611785565b9081526040519081900360200190205460ff169150509392505050565b6108613383610ae5565b61087d5760405162461bcd60e51b815260040161055690611738565b6108898484848461105f565b50505050565b606061089a82610a18565b600082815260066020526040812080546108b3906116fe565b80601f01602080910402602001604051908101604052809291908181526020018280546108df906116fe565b801561092c5780601f106109015761010080835404028352916020019161092c565b820191906000526020600020905b81548152906001019060200180831161090f57829003601f168201915b50505050509050600061094a60408051602081019091526000815290565b9050805160000361095c575092915050565b81511561098e5780826040516020016109769291906117a1565b60405160208183030381529060405292505050919050565b61099784611092565b949350505050565b6109a7610cc7565b6001600160a01b038116610a0c5760405162461bcd60e51b815260206004820152602660248201527f4f776e61626c653a206e6577206f776e657220697320746865207a65726f206160448201526564647265737360d01b6064820152608401610556565b610a1581610d21565b50565b6000818152600260205260409020546001600160a01b0316610a155760405162461bcd60e51b8152602060048201526018602482015277115490cdcc8c4e881a5b9d985b1a59081d1bdad95b88125160421b6044820152606401610556565b600081815260046020526040902080546001600160a01b0319166001600160a01b0384169081179091558190610aac82610648565b6001600160a01b03167f8c5be1e5ebec7d5bd14f71427d1e84f3dd0314c0f7b2291e5b200ac8c7c3b92560405160405180910390a45050565b600080610af183610648565b9050806001600160a01b0316846001600160a01b03161480610b3857506001600160a01b0380821660009081526005602090815260408083209388168352929052205460ff165b806109975750836001600160a01b0316610b51846104bb565b6001600160a01b031614949350505050565b826001600160a01b0316610b7682610648565b6001600160a01b031614610b9c5760405162461bcd60e51b8152600401610556906117d0565b6001600160a01b038216610bfe5760405162461bcd60e51b8152602060048201526024808201527f4552433732313a207472616e7366657220746f20746865207a65726f206164646044820152637265737360e01b6064820152608401610556565b826001600160a01b0316610c1182610648565b6001600160a01b031614610c375760405162461bcd60e51b8152600401610556906117d0565b600081815260046020908152604080832080546001600160a01b03199081169091556001600160a01b0387811680865260038552838620805460001901905590871680865283862080546001019055868652600290945282852080549092168417909155905184937fddf252ad1be2c89b69c2b068fc378daa952ba7f163c4a11628f55a4df523b3ef91a4505050565b6007546001600160a01b031633146107405760405162461bcd60e51b815260206004820181905260248201527f4f776e61626c653a2063616c6c6572206973206e6f7420746865206f776e65726044820152606401610556565b600780546001600160a01b038381166001600160a01b0319831681179093556040519116919082907f8be0079c531659141344cd1fd0a4f28419497f9722a3daafe3b4186f6b6457e090600090a35050565b816001600160a01b0316836001600160a01b031603610dd45760405162461bcd60e51b815260206004820152601960248201527f4552433732313a20617070726f766520746f2063616c6c6572000000000000006044820152606401610556565b6001600160a01b03838116600081815260056020908152604080832094871680845294825291829020805460ff191686151590811790915591519182527f17307eab39ab6107e8899845ad3d59bd9653f200f220920489ca2b5937696c31910160405180910390a3505050565b6001600160a01b038216610e975760405162461bcd60e51b815260206004820181905260248201527f4552433732313a206d696e7420746f20746865207a65726f20616464726573736044820152606401610556565b6000818152600260205260409020546001600160a01b031615610efc5760405162461bcd60e51b815260206004820152601c60248201527f4552433732313a20746f6b656e20616c7265616479206d696e746564000000006044820152606401610556565b6000818152600260205260409020546001600160a01b031615610f615760405162461bcd60e51b815260206004820152601c60248201527f4552433732313a20746f6b656e20616c7265616479206d696e746564000000006044820152606401610556565b6001600160a01b038216600081815260036020908152604080832080546001019055848352600290915280822080546001600160a01b0319168417905551839291907fddf252ad1be2c89b69c2b068fc378daa952ba7f163c4a11628f55a4df523b3ef908290a45050565b6000828152600260205260409020546001600160a01b03166110475760405162461bcd60e51b815260206004820152602e60248201527f45524337323155524953746f726167653a2055524920736574206f66206e6f6e60448201526d32bc34b9ba32b73a103a37b5b2b760911b6064820152608401610556565b60008281526006602052604090206105f78282611863565b61106a848484610b63565b61107684848484611106565b6108895760405162461bcd60e51b815260040161055690611923565b606061109d82610a18565b60006110b460408051602081019091526000815290565b905060008151116110d457604051806020016040528060008152506110ff565b806110de84611207565b6040516020016110ef9291906117a1565b6040516020818303038152906040525b9392505050565b60006001600160a01b0384163b156111fc57604051630a85bd0160e11b81526001600160a01b0385169063150b7a029061114a903390899088908890600401611975565b6020604051808303816000875af1925050508015611185575060408051601f3d908101601f19168201909252611182918101906119b2565b60015b6111e2573d8080156111b3576040519150601f19603f3d011682016040523d82523d6000602084013e6111b8565b606091505b5080516000036111da5760405162461bcd60e51b815260040161055690611923565b805181602001fd5b6001600160e01b031916630a85bd0160e11b149050610997565b506001949350505050565b606060006112148361129a565b600101905060008167ffffffffffffffff811115611234576112346114a3565b6040519080825280601f01601f19166020018201604052801561125e576020820181803683370190505b5090508181016020015b600019016f181899199a1a9b1b9c1cb0b131b232b360811b600a86061a8153600a850494508461126857509392505050565b60008072184f03e93ff9f4daa797ed6e38ed64bf6a1f0160401b83106112d95772184f03e93ff9f4daa797ed6e38ed64bf6a1f0160401b830492506040015b6d04ee2d6d415b85acef81000000008310611305576d04ee2d6d415b85acef8100000000830492506020015b662386f26fc10000831061132357662386f26fc10000830492506010015b6305f5e100831061133b576305f5e100830492506008015b612710831061134f57612710830492506004015b60648310611361576064830492506002015b600a83106104235760010192915050565b6001600160e01b031981168114610a1557600080fd5b60006020828403121561139a57600080fd5b81356110ff81611372565b60005b838110156113c05781810151838201526020016113a8565b50506000910152565b600081518084526113e18160208601602086016113a5565b601f01601f19169290920160200192915050565b6020815260006110ff60208301846113c9565b60006020828403121561141a57600080fd5b5035919050565b80356001600160a01b038116811461143857600080fd5b919050565b6000806040838503121561145057600080fd5b61145983611421565b946020939093013593505050565b60008060006060848603121561147c57600080fd5b61148584611421565b925061149360208501611421565b9150604084013590509250925092565b634e487b7160e01b600052604160045260246000fd5b600067ffffffffffffffff808411156114d4576114d46114a3565b604051601f8501601f19908116603f011681019082821181831017156114fc576114fc6114a3565b8160405280935085815286868601111561151557600080fd5b858560208301376000602087830101525050509392505050565b600082601f83011261154057600080fd5b6110ff838335602085016114b9565b60006020828403121561156157600080fd5b813567ffffffffffffffff81111561157857600080fd5b6109978482850161152f565b60006020828403121561159657600080fd5b6110ff82611421565b600080604083850312156115b257600080fd5b6115bb83611421565b9150602083013580151581146115d057600080fd5b809150509250929050565b6000806000606084860312156115f057600080fd5b6115f984611421565b9250602084013567ffffffffffffffff8082111561161657600080fd5b6116228783880161152f565b9350604086013591508082111561163857600080fd5b506116458682870161152f565b9150509250925092565b6000806000806080858703121561166557600080fd5b61166e85611421565b935061167c60208601611421565b925060408501359150606085013567ffffffffffffffff81111561169f57600080fd5b8501601f810187136116b057600080fd5b6116bf878235602084016114b9565b91505092959194509250565b600080604083850312156116de57600080fd5b6116e783611421565b91506116f560208401611421565b90509250929050565b600181811c9082168061171257607f821691505b60208210810361173257634e487b7160e01b600052602260045260246000fd5b50919050565b6020808252602d908201527f4552433732313a2063616c6c6572206973206e6f7420746f6b656e206f776e6560408201526c1c881bdc88185c1c1c9bdd9959609a1b606082015260800190565b600082516117978184602087016113a5565b9190910192915050565b600083516117b38184602088016113a5565b8351908301906117c78183602088016113a5565b01949350505050565b60208082526025908201527f4552433732313a207472616e736665722066726f6d20696e636f72726563742060408201526437bbb732b960d91b606082015260800190565b601f8211156105f757600081815260208120601f850160051c8101602086101561183c5750805b601f850160051c820191505b8181101561185b57828155600101611848565b505050505050565b815167ffffffffffffffff81111561187d5761187d6114a3565b6118918161188b84546116fe565b84611815565b602080601f8311600181146118c657600084156118ae5750858301515b600019600386901b1c1916600185901b17855561185b565b600085815260208120601f198616915b828110156118f5578886015182559484019460019091019084016118d6565b50858210156119135787850151600019600388901b60f8161c191681555b5050505050600190811b01905550565b60208082526032908201527f4552433732313a207472616e7366657220746f206e6f6e20455243373231526560408201527131b2b4bb32b91034b6b83632b6b2b73a32b960711b606082015260800190565b6001600160a01b03858116825284166020820152604081018390526080606082018190526000906119a8908301846113c9565b9695505050505050565b6000602082840312156119c457600080fd5b81516110ff8161137256fea264697066735822122078dc9d8a9942f6f587963d1d835986bc2c38385c5b252d0c63301b2fedd8491f64736f6c63430008120033",
  "linkReferences": {},
  "deployedLinkReferences": {}
}